{
	"data": {
		"bytecode": {
			"linkReferences": {},
			"object": "6080604052348015600e575f80fd5b506104668061001c5f395ff3fe608060405234801561000f575f80fd5b506004361061003f575f3560e01c80633a5071421461004357806372057987146100735780639a7846b914610091575b5f80fd5b61005d60048036038101906100589190610363565b6100af565b60405161006a9190610417565b60405180910390f35b61007b6100ba565b6040516100889190610417565b60405180910390f35b610099610107565b6040516100a69190610417565b60405180910390f35b5f9695505050505050565b5f6101026001600260035f60016040518060400160405280600181526020017f63000000000000000000000000000000000000000000000000000000000000008152506100af565b905090565b5f61014f6001600260035f60016040518060400160405280600181526020017f63000000000000000000000000000000000000000000000000000000000000008152506100af565b905090565b5f604051905090565b5f80fd5b5f80fd5b5f819050919050565b61017781610165565b8114610181575f80fd5b50565b5f813590506101928161016e565b92915050565b5f73ffffffffffffffffffffffffffffffffffffffff82169050919050565b5f6101c182610198565b9050919050565b6101d1816101b7565b81146101db575f80fd5b50565b5f813590506101ec816101c8565b92915050565b5f8115159050919050565b610206816101f2565b8114610210575f80fd5b50565b5f81359050610221816101fd565b92915050565b5f80fd5b5f80fd5b5f601f19601f8301169050919050565b7f4e487b71000000000000000000000000000000000000000000000000000000005f52604160045260245ffd5b6102758261022f565b810181811067ffffffffffffffff821117156102945761029361023f565b5b80604052505050565b5f6102a6610154565b90506102b2828261026c565b919050565b5f67ffffffffffffffff8211156102d1576102d061023f565b5b6102da8261022f565b9050602081019050919050565b828183375f83830152505050565b5f610307610302846102b7565b61029d565b9050828152602081018484840111156103235761032261022b565b5b61032e8482856102e7565b509392505050565b5f82601f83011261034a57610349610227565b5b813561035a8482602086016102f5565b91505092915050565b5f805f805f8060c0878903121561037d5761037c61015d565b5b5f61038a89828a01610184565b965050602061039b89828a01610184565b95505060406103ac89828a01610184565b94505060606103bd89828a016101de565b93505060806103ce89828a01610213565b92505060a087013567ffffffffffffffff8111156103ef576103ee610161565b5b6103fb89828a01610336565b9150509295509295509295565b61041181610165565b82525050565b5f60208201905061042a5f830184610408565b9291505056fea264697066735822122088f2786c6d2b4119099cda325d02a20043e1ecc66cb212cd30b1d9659f19698364736f6c634300081a0033",
			"opcodes": "PUSH1 0x80 PUSH1 0x40 MSTORE CALLVALUE DUP1 ISZERO PUSH1 0xE JUMPI PUSH0 DUP1 REVERT JUMPDEST POP PUSH2 0x466 DUP1 PUSH2 0x1C PUSH0 CODECOPY PUSH0 RETURN INVALID PUSH1 0x80 PUSH1 0x40 MSTORE CALLVALUE DUP1 ISZERO PUSH2 0xF JUMPI PUSH0 DUP1 REVERT JUMPDEST POP PUSH1 0x4 CALLDATASIZE LT PUSH2 0x3F JUMPI PUSH0 CALLDATALOAD PUSH1 0xE0 SHR DUP1 PUSH4 0x3A507142 EQ PUSH2 0x43 JUMPI DUP1 PUSH4 0x72057987 EQ PUSH2 0x73 JUMPI DUP1 PUSH4 0x9A7846B9 EQ PUSH2 0x91 JUMPI JUMPDEST PUSH0 DUP1 REVERT JUMPDEST PUSH2 0x5D PUSH1 0x4 DUP1 CALLDATASIZE SUB DUP2 ADD SWAP1 PUSH2 0x58 SWAP2 SWAP1 PUSH2 0x363 JUMP JUMPDEST PUSH2 0xAF JUMP JUMPDEST PUSH1 0x40 MLOAD PUSH2 0x6A SWAP2 SWAP1 PUSH2 0x417 JUMP JUMPDEST PUSH1 0x40 MLOAD DUP1 SWAP2 SUB SWAP1 RETURN JUMPDEST PUSH2 0x7B PUSH2 0xBA JUMP JUMPDEST PUSH1 0x40 MLOAD PUSH2 0x88 SWAP2 SWAP1 PUSH2 0x417 JUMP JUMPDEST PUSH1 0x40 MLOAD DUP1 SWAP2 SUB SWAP1 RETURN JUMPDEST PUSH2 0x99 PUSH2 0x107 JUMP JUMPDEST PUSH1 0x40 MLOAD PUSH2 0xA6 SWAP2 SWAP1 PUSH2 0x417 JUMP JUMPDEST PUSH1 0x40 MLOAD DUP1 SWAP2 SUB SWAP1 RETURN JUMPDEST PUSH0 SWAP7 SWAP6 POP POP POP POP POP POP JUMP JUMPDEST PUSH0 PUSH2 0x102 PUSH1 0x1 PUSH1 0x2 PUSH1 0x3 PUSH0 PUSH1 0x1 PUSH1 0x40 MLOAD DUP1 PUSH1 0x40 ADD PUSH1 0x40 MSTORE DUP1 PUSH1 0x1 DUP2 MSTORE PUSH1 0x20 ADD PUSH32 0x6300000000000000000000000000000000000000000000000000000000000000 DUP2 MSTORE POP PUSH2 0xAF JUMP JUMPDEST SWAP1 POP SWAP1 JUMP JUMPDEST PUSH0 PUSH2 0x14F PUSH1 0x1 PUSH1 0x2 PUSH1 0x3 PUSH0 PUSH1 0x1 PUSH1 0x40 MLOAD DUP1 PUSH1 0x40 ADD PUSH1 0x40 MSTORE DUP1 PUSH1 0x1 DUP2 MSTORE PUSH1 0x20 ADD PUSH32 0x6300000000000000000000000000000000000000000000000000000000000000 DUP2 MSTORE POP PUSH2 0xAF JUMP JUMPDEST SWAP1 POP SWAP1 JUMP JUMPDEST PUSH0 PUSH1 0x40 MLOAD SWAP1 POP SWAP1 JUMP JUMPDEST PUSH0 DUP1 REVERT JUMPDEST PUSH0 DUP1 REVERT JUMPDEST PUSH0 DUP2 SWAP1 POP SWAP2 SWAP1 POP JUMP JUMPDEST PUSH2 0x177 DUP2 PUSH2 0x165 JUMP JUMPDEST DUP2 EQ PUSH2 0x181 JUMPI PUSH0 DUP1 REVERT JUMPDEST POP JUMP JUMPDEST PUSH0 DUP2 CALLDATALOAD SWAP1 POP PUSH2 0x192 DUP2 PUSH2 0x16E JUMP JUMPDEST SWAP3 SWAP2 POP POP JUMP JUMPDEST PUSH0 PUSH20 0xFFFFFFFFFFFFFFFFFFFFFFFFFFFFFFFFFFFFFFFF DUP3 AND SWAP1 POP SWAP2 SWAP1 POP JUMP JUMPDEST PUSH0 PUSH2 0x1C1 DUP3 PUSH2 0x198 JUMP JUMPDEST SWAP1 POP SWAP2 SWAP1 POP JUMP JUMPDEST PUSH2 0x1D1 DUP2 PUSH2 0x1B7 JUMP JUMPDEST DUP2 EQ PUSH2 0x1DB JUMPI PUSH0 DUP1 REVERT JUMPDEST POP JUMP JUMPDEST PUSH0 DUP2 CALLDATALOAD SWAP1 POP PUSH2 0x1EC DUP2 PUSH2 0x1C8 JUMP JUMPDEST SWAP3 SWAP2 POP POP JUMP JUMPDEST PUSH0 DUP2 ISZERO ISZERO SWAP1 POP SWAP2 SWAP1 POP JUMP JUMPDEST PUSH2 0x206 DUP2 PUSH2 0x1F2 JUMP JUMPDEST DUP2 EQ PUSH2 0x210 JUMPI PUSH0 DUP1 REVERT JUMPDEST POP JUMP JUMPDEST PUSH0 DUP2 CALLDATALOAD SWAP1 POP PUSH2 0x221 DUP2 PUSH2 0x1FD JUMP JUMPDEST SWAP3 SWAP2 POP POP JUMP JUMPDEST PUSH0 DUP1 REVERT JUMPDEST PUSH0 DUP1 REVERT JUMPDEST PUSH0 PUSH1 0x1F NOT PUSH1 0x1F DUP4 ADD AND SWAP1 POP SWAP2 SWAP1 POP JUMP JUMPDEST PUSH32 0x4E487B7100000000000000000000000000000000000000000000000000000000 PUSH0 MSTORE PUSH1 0x41 PUSH1 0x4 MSTORE PUSH1 0x24 PUSH0 REVERT JUMPDEST PUSH2 0x275 DUP3 PUSH2 0x22F JUMP JUMPDEST DUP2 ADD DUP2 DUP2 LT PUSH8 0xFFFFFFFFFFFFFFFF DUP3 GT OR ISZERO PUSH2 0x294 JUMPI PUSH2 0x293 PUSH2 0x23F JUMP JUMPDEST JUMPDEST DUP1 PUSH1 0x40 MSTORE POP POP POP JUMP JUMPDEST PUSH0 PUSH2 0x2A6 PUSH2 0x154 JUMP JUMPDEST SWAP1 POP PUSH2 0x2B2 DUP3 DUP3 PUSH2 0x26C JUMP JUMPDEST SWAP2 SWAP1 POP JUMP JUMPDEST PUSH0 PUSH8 0xFFFFFFFFFFFFFFFF DUP3 GT ISZERO PUSH2 0x2D1 JUMPI PUSH2 0x2D0 PUSH2 0x23F JUMP JUMPDEST JUMPDEST PUSH2 0x2DA DUP3 PUSH2 0x22F JUMP JUMPDEST SWAP1 POP PUSH1 0x20 DUP2 ADD SWAP1 POP SWAP2 SWAP1 POP JUMP JUMPDEST DUP3 DUP2 DUP4 CALLDATACOPY PUSH0 DUP4 DUP4 ADD MSTORE POP POP POP JUMP JUMPDEST PUSH0 PUSH2 0x307 PUSH2 0x302 DUP5 PUSH2 0x2B7 JUMP JUMPDEST PUSH2 0x29D JUMP JUMPDEST SWAP1 POP DUP3 DUP2 MSTORE PUSH1 0x20 DUP2 ADD DUP5 DUP5 DUP5 ADD GT ISZERO PUSH2 0x323 JUMPI PUSH2 0x322 PUSH2 0x22B JUMP JUMPDEST JUMPDEST PUSH2 0x32E DUP5 DUP3 DUP6 PUSH2 0x2E7 JUMP JUMPDEST POP SWAP4 SWAP3 POP POP POP JUMP JUMPDEST PUSH0 DUP3 PUSH1 0x1F DUP4 ADD SLT PUSH2 0x34A JUMPI PUSH2 0x349 PUSH2 0x227 JUMP JUMPDEST JUMPDEST DUP2 CALLDATALOAD PUSH2 0x35A DUP5 DUP3 PUSH1 0x20 DUP7 ADD PUSH2 0x2F5 JUMP JUMPDEST SWAP2 POP POP SWAP3 SWAP2 POP POP JUMP JUMPDEST PUSH0 DUP1 PUSH0 DUP1 PUSH0 DUP1 PUSH1 0xC0 DUP8 DUP10 SUB SLT ISZERO PUSH2 0x37D JUMPI PUSH2 0x37C PUSH2 0x15D JUMP JUMPDEST JUMPDEST PUSH0 PUSH2 0x38A DUP10 DUP3 DUP11 ADD PUSH2 0x184 JUMP JUMPDEST SWAP7 POP POP PUSH1 0x20 PUSH2 0x39B DUP10 DUP3 DUP11 ADD PUSH2 0x184 JUMP JUMPDEST SWAP6 POP POP PUSH1 0x40 PUSH2 0x3AC DUP10 DUP3 DUP11 ADD PUSH2 0x184 JUMP JUMPDEST SWAP5 POP POP PUSH1 0x60 PUSH2 0x3BD DUP10 DUP3 DUP11 ADD PUSH2 0x1DE JUMP JUMPDEST SWAP4 POP POP PUSH1 0x80 PUSH2 0x3CE DUP10 DUP3 DUP11 ADD PUSH2 0x213 JUMP JUMPDEST SWAP3 POP POP PUSH1 0xA0 DUP8 ADD CALLDATALOAD PUSH8 0xFFFFFFFFFFFFFFFF DUP2 GT ISZERO PUSH2 0x3EF JUMPI PUSH2 0x3EE PUSH2 0x161 JUMP JUMPDEST JUMPDEST PUSH2 0x3FB DUP10 DUP3 DUP11 ADD PUSH2 0x336 JUMP JUMPDEST SWAP2 POP POP SWAP3 SWAP6 POP SWAP3 SWAP6 POP SWAP3 SWAP6 JUMP JUMPDEST PUSH2 0x411 DUP2 PUSH2 0x165 JUMP JUMPDEST DUP3 MSTORE POP POP JUMP JUMPDEST PUSH0 PUSH1 0x20 DUP3 ADD SWAP1 POP PUSH2 0x42A PUSH0 DUP4 ADD DUP5 PUSH2 0x408 JUMP JUMPDEST SWAP3 SWAP2 POP POP JUMP INVALID LOG2 PUSH5 0x6970667358 0x22 SLT KECCAK256 DUP9 CALLCODE PUSH25 0x6C6D2B4119099CDA325D02A20043E1ECC66CB212CD30B1D965 SWAP16 NOT PUSH10 0x8364736F6C634300081A STOP CALLER "
		},
		"gasEstimates": {
			"creation": {
				"codeDepositCost": "225200",
				"executionCost": "267",
				"totalCost": "225467"
			},
			"external": {
				"callFunc()": "465",
				"callFuncWithKeyValue()": "443",
				"someFuncWithMany(uint256,uint256,uint256,address,bool,string)": "infinite"
			}
		},
		"methodIdentifiers": {
			"callFunc()": "9a7846b9",
			"callFuncWithKeyValue()": "72057987",
			"someFuncWithMany(uint256,uint256,uint256,address,bool,string)": "3a507142"
		}
	},
	"abi": [
		{
			"inputs": [],
			"name": "callFunc",
			"outputs": [
				{
					"internalType": "uint256",
					"name": "",
					"type": "uint256"
				}
			],
			"stateMutability": "pure",
			"type": "function"
		},
		{
			"inputs": [],
			"name": "callFuncWithKeyValue",
			"outputs": [
				{
					"internalType": "uint256",
					"name": "",
					"type": "uint256"
				}
			],
			"stateMutability": "pure",
			"type": "function"
		},
		{
			"inputs": [
				{
					"internalType": "uint256",
					"name": "x",
					"type": "uint256"
				},
				{
					"internalType": "uint256",
					"name": "y",
					"type": "uint256"
				},
				{
					"internalType": "uint256",
					"name": "z",
					"type": "uint256"
				},
				{
					"internalType": "address",
					"name": "a",
					"type": "address"
				},
				{
					"internalType": "bool",
					"name": "b",
					"type": "bool"
				},
				{
					"internalType": "string",
					"name": "c",
					"type": "string"
				}
			],
			"name": "someFuncWithMany",
			"outputs": [
				{
					"internalType": "uint256",
					"name": "",
					"type": "uint256"
				}
			],
			"stateMutability": "pure",
			"type": "function"
		}
	]
}